:100000005AC5000075C5000073C500000C94762E1B
:100010006FC500006DC500006BC5000069C500001C
:1000200067C5000065C500000C94102B0C94FE2BD6
:100030000C9493145DC500005BC5000059C5000019
:1000400057C5000055C5000053C5000051C500004C
:100050004FC500000C94E62A4BC5000049C50000BE
:1000600047C5000045C5000043C5000041C500006C
:100070003FC500003DC500003BC5000039C500007C
:1000800037C5000035C5000033C5000031C500008C
:100090002FC500002DC500002BC5000029C500009C
:1000A00027C5000025C5000023C5000009000D007C
:1000B00000000D000E00000000AF00AE00000000C8
:1000C00000003E5B4F5B3E003E6B4F6B3E001C3EB4
:1000D0007C3E1C00183C7E3C18001C577D571C00C1
:1000E0001C5E7F5E1C0000183C180000FFE7C3E7A1
:1000F000FF00001824180000FFE7DBE7FF0030488E
:100100003A060E00262979292600407F05050700BA
:10011000407F05253F005A3CE73C5A007F3E1C1CAF
:100120000800081C1C3E7F0014227F2214005F5F21
:10013000005F5F0006097F017F00006689956A0005
:1001400060606060600094A2FFA2940008047E04D6
:10015000080010207E20100008082A1C0800081C37
:100160002A0808001E10101010000C1E0C1E0C0097
:1001700030383E383000060E3E0E0600000000000B
:10018000000000005F000000000700070000147F6F
:10019000147F1400242A7F2A1200231308646200AB
:1001A000364956205000000807030000001C224179
:1001B00000000041221C00002A1C7F1C2A000808A5
:1001C0003E08080000807030000008080808080099
:1001D0000000606000002010080402003E51494504
:1001E0003E0000427F4000007249494946002141DB
:1001F000494D33001814127F10002745454539003A
:100200003C4A494931004121110907003649494911
:100210003600464949291E00000014000000004035
:1002200034000000000814224100141414141400B7
:100230000041221408000201590906003E415D599F
:100240004E007C1211127C007F49494936003E4124
:10025000414122007F4141413E007F4949494100DF
:100260007F09090901003E41415173007F080808D8
:100270007F0000417F4100002040413F01007F0896
:10028000142241007F40404040007F021C027F005A
:100290007F0408107F003E4141413E007F0909096B
:1002A00006003E4151215E007F091929460026497A
:1002B0004949320003017F0103003F4040403F00B5
:1002C0001F2040201F003F4038403F0063140814A7
:1002D00063000304780403006159494D4300007F23
:1002E00041414100020408102000004141417F00CB
:1002F000040201020400404040404000000307089F
:1003000000002054547840007F284444380038448A
:1003100044442800384444287F003854545418007A
:1003200000087E0902001824241C78007F080404B9
:10033000780000447D4000002040403D00007F10D8
:100340002844000000417F4000007C0478047800CD
:100350007C08040478003844444438007C18242481
:100360001800182424187C007C0804040800485451
:100370005454240004043F4424003C4040207C00AA
:100380001C2040201C003C4030403C0044281028E9
:1003900044004C9090907C004464544C440000080D
:1003A00036410000000077000000004136080000E0
:1003B0000201020402003C2623263C00000000004B
:1003C000000000000000000000000000C0E0F0F8A5
:1003D000F81800C0F0FCFEFFFFFFFFFFFFFF7E00EC
:1003E000000000000000000080C0E0E0E0E0E0E08D
:1003F000E0E0C0800000000080C0E0E0E0E0E0E07D
:10040000E0E0C080000000E0E0C0C0E0E0E0E0002C
:1004100000E0E0C0C0E0E0E0E0E0C08000000000FC
:1004200080C0E0E0E0E0E0E0E0E0C080000000004C
:1004300000000000000000000000E0F0F0F0E0EC40
:10044000EEF7F37020007C7C7C7E007E7E7E7F7FDA
:100450007F000080C0E07E5B4F5BFEC00000C000FC
:10046000DCD7DEDEDED7DC00C000000000000000CC
:10047000000000000000000000000000000000007C
:100480000000000000F8FCFEFFE000FFFFFFFFFFA0
:10049000FF80FFFFFFFFFFFFFFFFFF1F07010000BF
:1004A00000000000000000FFFFFF810000000000CE
:1004B0000081C3C3C30000FFFFFF810000000000F4
:1004C0000081FFFFFF0000FFFFFF010000000000B0
:1004D00000FFFFFF010000000001FFFFFF0000FF21
:1004E000FFFF9D1C1C1C1C1C1C9DDFDFDF0000008F
:1004F000000000000000000000000F1F3F7F7F7F12
:100500007F7F3F1E0C001F1F1F3F003F3F3F7F7F2D
:100510007F00307B7F7830202030787F3B000300E5
:100520000F7F0F0F0F7F0F0003000000000000007F
:1005300000000000000000000000000000000000BB
:100540000000000000030F1F3F3F3F3F1F1F3F3FC2
:100550007F7F7F3F3F1F3F7F7F7F7F7C7878381C86
:100560000F0000000000000001030707070707074E
:10057000070703010000000001030707070707073B
:100580000707030100000007070700000000000044
:100590000007070700000000000007070700000031
:1005A000010307070707070707070301000000000B
:1005B000000000000000000000000000000000003B
:1005C000000000000000000000000000000000002B
:1005D000000000000000000000000000000000001B
:1005E000000000000000000000000000000000000B
:1005F00000000000000000000000000005010902EA
:10060000A10185020901A1000509190129081500A8
:10061000250195087501810205010930093115810F
:10062000257F95027508810609381581257F95017A
:1006300075088106050C0A38021581257F9501751C
:10064000088106C0C005010980A101850319012A9E
:10065000B700150126B700950175108100C0050C83
:100660000901A101850419012AA002150126A00291
:10067000950175108100C005010906A101850605D7
:100680000719E029E7150025019508750181020584
:1006900007190029EF1500250195F0750181020564
:1006A00008190129059505750191029501750391B8
:1006B00001C005010906A101050719E029E7150098
:1006C00025019508750181029501750881010507CD
:1006D000190029FF150026FF009506750881000501
:1006E0000819012905150025019505750191029547
:1006F0000175039101C009023B00020100A0FA0943
:10070000040000010301010009211101000122443C
:10071000000705810308000109040100010300002E
:100720000009211101000122B60007058203200003
:1007300001120100020000000853460100010001FF
:100740000200010C0343006F0072006E00650000A0
:1007500000100366006F006F007300740061006E8C
:10076000000000040309040001010101010101016D
:100770000102020202020202020203030303030354
:100780000303040404040404040505050505060622
:1007900006060607070707070808080809090909E0
:1007A0000A0A0A0B0B0B0C0C0C0D0D0D0E0E0E0F86
:1007B0000F0F101011111112121313141415151616
:1007C000161717181819191A1A1B1B1C1D1D1E1E87
:1007D0001F202021222223242425262627282929D8
:1007E0002A2B2C2D2D2E2F30313232333435363703
:1007F00038393A3B3C3D3E3F404142434445464701
:1008000048494A4C4D4E4F50515354555658595AD9
:100810005B5D5E5F616264656668696B6C6D6F707D
:1008200072737577787A7B7D7E8082838587888AEC
:100830008C8E8F91939596989A9C9EA0A2A3A5A723
:10084000A9ABADAFB1B3B5B7BABCBEC0C2C4C6C91F
:10085000CBCDCFD1D4D6D8DBDDDFE2E4E7E9EBEED8
:10086000F0F3F5F8FAFDFF00DA0281FFD9F1DB20A1
:10087000A4A62EAF00A0C0D30000A1C8D30000AE34
:10088000D580A81F408D14200080818283848586B6
:100890008788898A8B8C8D8E8F9091929394A0A15A
:1008A000A2A3A4A5A6A7A8A9AAABACADAEAFB0B1B0
:1008B000B2B3B4C0C1C2C3C4C5C6C7C8C9CACBCC11
:1008C000CDCECFD0D1D2D3D4003A002C206B00783B
:1008D00000556E6465660041646A75737400526108
:1008E000697365004C6F7765720044656661756C6D
:1008F00074004C617965723A2000290014001A00D6
:100900000800150017002B2204001600070009003C
:100910000A00E0001D001B00060019000500000091
:1009200000000000E3002C0021522A0013001200F6
:100930000C0018001C00340033000F000E000D00E6
:100940000B00B452380037003600100011000000D0
:1009500000000000E2002832225229001E001F0081
:10096000200021002200E000460000000000A80056
:10097000A900E0000000AC00AB00AE00AA0000003F
:10098000000000000100010001002A0027002600ED
:100990002500240023003502350031002F022D00F0
:1009A0002F00E6003102000030022E00300000006F
:1009B000000000000100E50023522B003A003B003C
:1009C0003C003D003E00E000440045000000000007
:1009D0000000E10000007B007C007D0000000000C2
:1009E000000000000100010023524C0043004200BF
:1009F000410040003F00000000004F005200510045
:100A00005000000000004D004B004E004A00000066
:100A100000000000010001000100007C0000000057
:100A200000000000000042784578477849780000CF
:100A3000BD004378467848784A780000BE00000040
:100A400000000000010001000100A5000000D2002C
:100A5000D300D100D900A6000000D000CD00CE0008
:100A6000CF00A7000000D500D4000000DA0000008D
:100A70000000000001000100010020202020616230
:100A8000636465666768696A6B6C6D6E6F707172BE
:100A9000737475767778797A3132333435363738FE
:100AA0003930524542545F2D3D5B5D5C233B2760EE
:100AB0002C2E2F20202011241FBECFEFDAE0DEBF26
:100AC000CDBF12E0A0E0B1E0E6EDF1E602C0059096
:100AD0000D92AC3AB107D9F727E0ACEAB2E001C019
:100AE0001D92A936B207E1F70E94D1250C947F3000
:100AF00087CAA0E0B0E0EFE7F5E00C94A82F292F1B
:100B000030E048E0911102C09C0140E0C90164E07E
:100B1000969587956A95E1F7009711F04C5F9C01D7
:100B2000C9019695879596958795009711F04E5F28
:100B30009C01C90196958795840FE2E00C94C42F1F
:100B4000A0E0B0E0E6EAF5E00C94A82F90936607E9
:100B500080936507E2E00C94C42FA0E0B0E0E3EBE3
:100B6000F5E00C94A82F9093680780936707E2E064
:100B70000C94C42FA0E0B0E0E0ECF5E00C94A82FBA
:100B800021E030E002C0220F331F8A95E2F7809106
:100B9000670790916807822B932BDFDFE2E00C94CC
:100BA000C42FA0E0B0E0E7EDF5E00C94A82F21E021
:100BB00030E002C0220F331F8A95E2F7209530956E
:100BC000809167079091680782239323C6DFE2E054
:100BD0000C94C42FA0E0B0E0E0EFF5E00C94A82F57
:100BE000983090F5863080F5E82FF0E086E0989F09
:100BF000E00DF11D11248E2F877041E001C0440FDC
:100C00008A95EAF783E0F695E7958A95E1F7EE0F86
:100C1000FF1FEE0FFF1FE954F94F20E030E070E0B6
:100C20005191DF01CB01022E02C0969587950A945F
:100C3000E2F7817081958527842385278E932F5F26
:100C40003F4F2430310561F7E2E00C94C42FA0E05F
:100C5000B0E0EDE2F6E00C94A82F983088F58630ED
:100C600078F5E82FF0E086E0989FE00DF11D112463
:100C70009E2F977083E0F695E7958A95E1F7EE0F42
:100C8000FF1FEE0FFF1FE954F94F40E050E080E0F6
:100C9000219130E0092E02C0369527950A94E2F79B
:100CA00021703327042E01C0220F0A94EAF7822B09
:100CB0004F5F5F4F4430510559F7E2E00C94C42F69
:100CC00080E0FBCFA0E0B0E0E8E6F6E00C94A82FCF
:100CD0008091650690916406981303C0E2E00C943D
:100CE000C42F8F5F8770F8CFA0E0B0E0EAE7F6E0AE
:100CF0000C94A82F9091EA06809589238093EA06A8
:100D0000282F277021110CC0891751F09091EC0603
:100D100092FF06C086958695869543DF1092EA0677
:100D2000E2E00C94C42FA0E0B0E0E9E9F6E00C9416
:100D3000A82F8091E7069091ED06892B5091E80647
:100D4000511591F090914301913021F49091EB066F
:100D500097FD0DC096E020EB32E040E0915058F452
:100D600041111092E806852BE2E00C94C42F9EE11D
:100D700028EB32E0F2CFF90161919F01611571F327
:100D80004F5FECCFA0E0B0E0E8ECF6E00C94A82FC9
:100D9000982F90958091E70689238093E706E2E0FB
:100DA0000C94C42FA0E0B0E0E8EDF6E00C94A82F7E
:100DB0007830C8F46630B8F48430C0F4E62FF0E040
:100DC00096E0799FE00DF11D112490E3899FE00DDD
:100DD000F11D1124EE0FFF1FE650F74F85919591FD
:100DE000E2E00C94C42F80E090E0FACF81E0FCCFE9
:100DF000A0E0B0E0EEEFF6E00C94A82F9C01803E5E
:100E0000910509F44AC0E8F48133910509F47FC0E3
:100E100058F48932910509F46FC08A9709F47EC0AD
:100E2000C901E2E00C94C42F8933910551F1823855
:100E3000910539F1C597A1F78091EB0685FFF0CFB9
:100E400029C0843E910509F447C048F4823E9105CB
:100E500099F1833E9105A9F121EE30E0E1CF863E84
:100E6000910509F444C0873E9105D1F68091EB06C7
:100E700083FD61C09091EC0691FF2BC024EE30E021
:100E8000CFCF8091EB068370811152C08091EC0628
:100E900083FFC6CF29E230E0C3CF8091EB0680FD0F
:100EA00033C09091EC0690FFBBCF23EE30E084FF7F
:100EB000B7CF20E030E0B4CF8091EB0682FDF5CFD4
:100EC000AFCF8091EB0682FD30C09091EC0690FD93
:100ED0002FC084FFA5CFEDCF8091EC0681FFA0CF7E
:100EE0008091EB0627EE30E084FDE3CF99CF80912F
:100EF000EB0683FDF7CF94CF8091EB0685FD1EC0F6
:100F00008091EC0683FF8CCF29E330E089CF80917C
:100F1000EB0686FF85CF2AE230E082CF8091EB0698
:100F200086FF7ECF21E330E07BCF22EE30E078CF2A
:100F300020EE30E075CF26EE30E072CF25E330E0D2
:100F40006FCFA0E0B0E0E7EAF7E00C94A82F909113
:100F5000EB0692FF10C041E0282F2471243009F0E5
:100F600040E031E0282F2871283009F030E04317A5
:100F700011F02CE0822793FF10C041E0282F24714C
:100F8000243109F040E031E0282F2871283109F0A0
:100F900030E0431711F02CE082273091EC0630FF4F
:100FA00010C051E0282F2171213009F050E041E0BC
:100FB000282F2871283009F040E0541711F029E05B
:100FC000822731FF10C041E0282F2171213109F023
:100FD00040E031E0282F2871283109F030E0431734
:100FE00011F029E0822794FD877EE2E00C94C42F63
:100FF000A0E0B0E0EEEFF7E00C94A52FF9DE8C0155
:10100000811522E5920708F051C0811540E594074B
:1010100008F0CDC0803E910520F58D3C910508F08B
:10102000A1C0883A910570F4853A910508F096C000
:1010300081309105B9F10497813A910598F100E06A
:1010400010E030C0885A91094B97C8F7085AE02F32
:10105000F0E0EE0FFF1FE15CFD4F00811181146491
:1010600021C0811550E49507B0F4011580E21807FE
:1010700008F0B3C0083E1105A8F0C8019A95811583
:101080009F41E8F6812F5DDFF82EC8019927B0DE79
:101090008C011F2907C09927ABDE00271F70082B82
:1010A000192B106AC801E5E00C94C12F803842E585
:1010B0009407C8F5803652E5950708F05CC0003407
:1010C00082E51807D0F4003292E5190708F04CC009
:1010D000802F8695869520E2829FC001112403709F
:1010E00021E030E0A90102C0440F551F0A95E2F744
:1010F0008A01082B192B1D68D5CF802F86958695E0
:10110000877050E2859FC0011124037021E030E018
:10111000A90102C0440F551F0A95E2F78A01082B66
:10112000192B1C68BFCF803C52E5950758F48F718E
:10113000003A1245A8F590E0982F88278C01046F9B
:10114000106AB0CF805C9245809708F078CF102F5E
:10115000002700271F71006F106AA4CF04521109E5
:101160001064A0CF10659ECF0F7110E0102F0027E4
:10117000016F106A97CF86958695877020E2829FCF
:10118000C0011124037021E030E0A90102C0440F26
:10119000551F0A95E2F78A01082B192B1A6882CF8E
:1011A000D0DE082F10E0102F002710627BCF8F7148
:1011B000C8DE93E0000F111F9A95E1F700271F701A
:1011C000282F30E084FF05C050E1859F9001112455
:1011D0003327022B132B106965CF812F8F71B1DE5E
:1011E000F82EC801992704DE8C011F29DECFA0E06C
:1011F000B0E0EDEFF8E00C949F2F7C01C090670702
:10120000D09068078091650790916607C82AD92A0F
:101210000FE010E0AA24A394B12CC501002E02C057
:10122000880F991F0A94E2F78C219D21892B41F4A4
:101230000150110990F7912C892DEBE00C94BB2FF4
:10124000902EB701802FAEDDD3DE019789F3F4CF66
:10125000CF92DF92EF92FF921F93CF93DF93CDB7A0
:10126000DEB7FC01E780F084E114F10489F48581A4
:10127000C080D1808115A9F0611599F0C601B7DF52
:10128000182F682FC601A6DCB601812F8BDD7C01EB
:10129000C701DF91CF911F91FF90EF90DF90CF902A
:1012A0000895C601D4DC182FEFCFA0E0B0E0EBE545
:1012B000F9E00C94A62F8C019ADFB80173DD98DE5B
:1012C000E4E00C94C22FA0E0B0E0E9E6F9E00C9471
:1012D000A82FFC0184818115B1F08781908500974A
:1012E000A1F086DE282F92959F709630D1F088F479
:1012F000925F9F70923038F481E0203F79F058F48B
:1013000081E0283E58F080E009C080819181CDDFE6
:10131000E9CF9A5FEECF81E0243FA9F7E2E00C9499
:10132000C42F91E0813F09F090E081E0283E08F071
:1013300080E0892BF3CFA0E0B0E0E1EAF9E00C9483
:10134000A82F80E0E2E00C94C42FA0E0B0E0EBEA2C
:10135000F9E00C94A82FF894E82FE295EF70F0E0F4
:1013600041A18F7021E030E0B90102C0660F771F04
:101370008A95E2F7CB01962F9095942391A392A1A1
:10138000892B82A37894E2E00C94C42FA0E0B0E013
:10139000ECECF9E00C94A32FF82EE62ED42E00E00E
:1013A00010E0C80120913306211103C00B3108F071
:1013B0004B972D2D4E2D6F2DA0D00F5F1F4F063355
:1013C000110579F7E7E00C94BF2FA0E0B0E0EBEE59
:1013D000F9E00C94A82F9BE0899F802D1124980F91
:1013E000973308F096E320913306211106C08B3124
:1013F00008F48BE1E2E00C94C42F9C31D8F39BE11C
:10140000F9CFA0E0B0E0E7E0FAE00C94A82FEEED11
:10141000F6E0808191E089278083109246018091D7
:10142000E60681608093E606E2E00C94C42FA0E01B
:10143000B0E0EDE1FAE00C94A82F8091DE06837015
:10144000811551F084608093DE06109246018091F0
:10145000E60681608093E606E2E00C94C42FA0E0EB
:10146000B0E0E5E3FAE00C94A82F8091DE068370EB
:10147000811551F084608093DE06109246018091C0
:10148000E60681608093E606E2E00C94C42FA0E0BB
:10149000B0E0EDE4FAE00C94A82FEEEDF6E0248144
:1014A00030E1230F08F42FEF24838091E60681605A
:1014B0008093E606E2E00C94C42FA0E0B0E0E3E6FF
:1014C000FAE00C94A82FEEEDF6E0248130E1231B26
:1014D00008F420E024838091E60681608093E6068C
:1014E000E2E00C94C42FA0E0B0E0E9E7FAE00C944D
:1014F000A82F539AE2E00C94C42FA0E0B0E0E3E8F8
:10150000FAE00C94A82FFC01EE0FFF1FE80FF91F63
:10151000EB5FFC4F618340832283E2E00C94C42F95
:10152000A0E0B0E0E6E9FAE00C94A82F1092F706EC
:101530001092F60680914C01811104C010924B016B
:1015400010924D0180915301811104C010925201FB
:1015500010925401E2E00C94C42FA0E0B0E0E3EB61
:10156000FAE00C94A82FAC013091F9066091F806CE
:10157000232F621719F1822F90E0FC01EE0FFF1F5D
:10158000E251F94F0190F081E02DE417F507C9F41D
:10159000E0E0F0E04230510540F467E0649FF00184
:1015A000659FF00D1124E95BFE4F41E04483231356
:1015B00005C00196837099278093F906E2E00C94A8
:1015C000C42F0196282F2370D4CFA0E0B0E0EBEE1B
:1015D000FAE00C94A82F282F35EB2303C001112427
:1015E00097FF06C080589109892FE2E00C94C42F20
:1015F00080589F4FF9CFA0E0B0E0E1E0FBE00C9411
:10160000A82F8091D10680FD16C081FD16C082FDF5
:1016100018C08091D006811591F08E3190F420E5AC
:10162000829FC00111246EE170E00E94DB2F862FA3
:10163000E2E00C94C42F84E1FBCF88E2F9CF88E08C
:10164000F7CF80E5F5CFA0E0B0E0E9E2FBE00C9455
:10165000A82F8091D10680FD1AC081FD1AC082FD9D
:101660001CC08091CF068115B1F08832B0F428E01B
:10167000829FC001112468E270E00E94DB2F81E0AC
:101680006115710509F0862FE2E00C94C42F62E029
:10169000FACF64E0F8CF61E0F6CF68E0F4CFA0E0E5
:1016A000B0E0E5E5FBE00C94A82F809132068115AF
:1016B00079F0E0915A06F0915B06309749F001907D
:1016C000F081E02D309721F00995E2E00C94C42FD1
:1016D00080E0FBCFA3E0B0E0E0E7FBE00C94A82FB4
:1016E0009C01809102039091030382179307B1F04C
:1016F0003093030320930203E0915A06F0915B06B6
:10170000309761F00084F185E02D309739F083E067
:1017100089833B832A83CE01019609952396E2E0D3
:101720000C94C42FA3E0B0E0E8E9FBE00C94A82FF0
:101730009C01809100039091010382179307B1F0FF
:101740003093010320930003E0915A06F0915B0669
:10175000309761F00084F185E02D309739F084E016
:1017600089833B832A83CE01019609952396E2E083
:101770000C94C42FA0E0B0E0E0ECFBE00C94A82FA8
:10178000909143019130B9F0A0EBB2E0EFEF90E01F
:101790002D91821739F1EF3F19F4211101C0E92F82
:1017A0009F5F9630A9F7EF3FE9F00E2E000CFF0B7C
:1017B000E255FD4F16C09091EB0697FFE5CFE82F5D
:1017C000E695E695E695803F68F4F0E0EA54FD4F33
:1017D000877021E030E001C0220F8A95EAF782810C
:1017E000822B8283E2E00C94C42FA0E0B0E0EBEF08
:1017F000FBE00C94A82F90914301913021F490913B
:10180000EB0697FD0CC0E0EBF2E09191891302C06A
:10181000DF011E9252E0E63BF507B9F717C0E82F4B
:10182000E695E695E695803F88F4F0E0EA54FD4FB2
:10183000877021E030E0A90102C0440F551F8A954E
:10184000E2F7CA018095928189238283E2E00C94B9
:10185000C42FA0E0B0E0EFE2FCE00C94A82F809150
:101860004201E2E00C94C42FA0E0B0E0EAE3FCE027
:101870000C94A82F2FB7F8946091FC027091FD0290
:101880008091FE029091FF022FBFE2E00C94C42FE2
:10189000CF92DF92EF92FF92CF93DF93CDB7DEB777
:1018A00080913206811561F0DFDF6B017C01C70199
:1018B000B601DF91CF91FF90EF90DF90CF90089528
:1018C000D3DFC0903406D0903506E0903606F09015
:1018D0003706C60ED71EE81EF91EE9CFA0E0B0E01D
:1018E000E4E7FCE00C94A82F87E797E790930108C2
:1018F0008093000888E19AE00FB6F894A895809349
:1019000060000FBE90936000FFCFA0E0B0E0EBE876
:10191000FCE00C94A82FFC019B018091F2029091B5
:10192000F3028617970740F0672B29F48091E800AF
:101930008E778093E800C90140E0009751F441118F
:1019400008C08091E80082FF31C080E0E2E00C94A2
:10195000C42F2091BB032115A9F12530A9F12091B5
:10196000E80023FD2DC02091E80022FDEACF209160
:10197000E80020FFE2CF3091F3002091F2000097C1
:1019800019F02830310558F041E02830310509F0D0
:1019900040E02091E8002E772093E800CECF4191DF
:1019A0004093F10001972F5F3F4FE9CF8091BB0338
:1019B000811541F0853041F08091E80083FFC1CF6F
:1019C00081E0C4CF82E0C2CF83E0C0CFA0E0B0E02E
:1019D000ECEEFCE00C94A82F8091EC0287FF15C080
:1019E0008091E80082FF06C08091E8008B778093A9
:1019F000E80004C08091BB038111F2CFE2E00C94B7
:101A0000C42F8091BB038115C9F38091E80080FF4A
:101A1000F8CF8091E8008E77EACFA0E0B0E0E3E174
:101A2000FDE00C94A82F2091E4003091E50095E6AC
:101A3000A9012091EC00822F817020FF06C08091C7
:101A4000E80080FF06C080E018C02091E80022FD79
:101A500014C08091BB03811599F0853099F0809175
:101A6000EB0085FD11C02091E4003091E5004217A4
:101A70005307F9F29A95E1F684E0E2E00C94C42F62
:101A800082E0FBCF83E0F9CF81E0F7CFA0E0B0E0C8
:101A9000ECE4FDE00C94A82FE8EDF0E080818E7F6F
:101AA00080831092E2001092DA001092E100A0EE22
:101AB000B0E08C9181608C9380818F77808319BC9A
:101AC000A7EDB0E08C918E7F8C9380818F7E808398
:101AD0001092EB02E2E00C94C42FA0E0B0E0E3E748
:101AE000FDE00C94A82FFC01AC014C5F5F4F8FEF21
:101AF00061E39191892728E030E0982F990F87FFC3
:101B00000BC0892F862721503040B9F7E417F5071D
:101B100081F7E2E00C94C42F892FF5CFA0E0B0E06C
:101B2000E4E9FDE00C94A82F9091DE0693709115E6
:101B300071F08093DF066093E006493708F048E7CC
:101B40004093E1068091E60681608093E606E2E03C
:101B50000C94C42FA0E0B0E0E0EBFDE00C94A82FC3
:101B6000EEEDF6E0818190E0438162810896D6DF58
:101B7000E2E00C94C42FA0E0B0E0E1ECFDE00C94B6
:101B8000A82FEEEDF6E08181438162818850990BA8
:101B9000C5DFE2E00C94C42FA0E0B0E0E2EDFDE090
:101BA0000C94A82FEEEDF6E0628120E1620F08F4BC
:101BB0006FEF8181438190E0B1DFE2E00C94C42FAC
:101BC000A0E0B0E0E6EEFDE00C94A82FEEEDF6E02C
:101BD000628120E1621B08F460E08181438190E032
:101BE0009DDFE2E00C94C42FA0E0B0E0EAEFFDE05E
:101BF0000C94A82FEEEDF6E0438120E1420F08F4AB
:101C00004FEF8181628190E089DFE2E00C94C42F84
:101C1000A0E0B0E0EEE0FEE00C94A82FEEEDF6E0E0
:101C2000438120E1421B08F440E08181628190E021
:101C300075DFE2E00C94C42FA0E0B0E0E2E2FEE049
:101C40000C94A82F982F9093E900891771F0709148
:101C5000EC002091ED005091F00021FD09C09F5F44
:101C6000973089F78093E9001CC0762F242F50E02D
:101C70003091EB003E7F3093EB003091ED003D7FE3
:101C80003093ED003091EB0031603093EB007093B6
:101C9000EC002093ED005093F0002091EE0027FD22
:101CA000DECFE2E00C94C42FA0E0B0E0EAE5FEE075
:101CB0000C94A02F08ED10E0F80180818F7E8083C6
:101CC000E7EDF0E080818160808384E082BF81E085
:101CD0008093EB02F80180818E7F808382EEE82E74
:101CE000F12CF70110821092DA0091EEA92EB12C9E
:101CF000F5011082F80180818F7780838081806870
:101D0000808380818F7D808319BC1092BB031092E9
:101D1000EA021092BA031092E90220EEC22ED12CF0
:101D2000F60180818B7F8083F801808181608083D0
:101D300042E060E080E080DFF50180818E7F80837B
:101D4000F701808181608083808188608083F601D3
:101D500080818E7F8083F801808180618083EAE0CA
:101D60000C94BC2FA0E0B0E0E8EBFEE00C94A82FB0
:101D7000E09165069091640629E0E91304C080E0D3
:101D8000E2E00C94C42FAE2FB0E02E9FF00111249E
:101D9000EA59F94F3181361306C03081381303C038
:101DA0003581341304C0FD013196E770E6CF81E040
:101DB000E7CFA0E0B0E0EFEDFEE00C94A82F3BB140
:101DC000377F2BB128604FB7F89485E093E0FC0192
:101DD0000196508168E02BB9000000C057FF3BB965
:101DE000550F000000C000C000C03BB900C06A959C
:101DF00091F753E0873A950751F74FBF8FE594E08D
:101E00000197F1F700C00000E2E00C94C42FA0E0BD
:101E1000B0E0EDE0FFE00C94A42F7B018A019091EB
:101E2000BB03943059F58093E9008FEF9091E8005F
:101E300095FD06C095ED9A95F1F700008A95B1F7EA
:101E40008091E80085FF1AC0E8DD811112C0809101
:101E5000E80085FD06C08091E8008E778093E80059
:101E6000F3CFF70181917F018093F1000150104081
:101E700071F78091E8008E778093E800E6E00C949B
:101E8000C02FA0E0B0E0E7E4FFE00C94A62F8C01A7
:101E900048E050E0BC0181E0BADF88E0F801A4EF3F
:101EA000B2E001900D928A95E1F7E4E00C94C22F24
:101EB000A0E0B0E0EEE5FFE00C94A82FBC0140E20A
:101EC00050E082E0A4DFE2E00C94C42FA0E0B0E098
:101ED000ECE6FFE00C94A82FBC0146E050E082E065
:101EE00096DFE2E00C94C42FA0E0B0E0EAE7FFE068
:101EF0000C94A82FBC0143E050E082E088DFE2E0D0
:101F00000C94C42FA0E0B0E0E8E8FFE00C949E2F12
:101F1000B82EA92E962E872E6A018091E0029AE0B3
:101F2000E92EF12C8A3018F0EE24E394F12C01E034
:101F300010E0692D782D8B2D9A2DF60109958111D0
:101F400017C00F5F1F4FE016F10694F0009FC0010D
:101F5000019F900D900D112420E030E045E34A955B
:101F6000F1F700002F5F3F4F28173907B9F7E1CF8E
:101F7000ECE00C94BA2FA0E0B0E0E1ECFFE00C94B0
:101F8000A82F9091EC0692FB222720F9281779F0D0
:101F900080FB92F99093EC066091EB067091EC0651
:101FA00084E090E00E947B3082E00E947406E2E0D0
:101FB0000C94C42FA0E0B0E0E0EEFFE00C94A82F5A
:101FC00080914301813079F58091EB0687FF2BC02A
:101FD0000E9493068093B70240E250E06AE376E005
:101FE00086EB92E00E941F30892BD1F080E2E6EB75
:101FF000F2E0AAE3B6E001900D928A95E1F7E09154
:102000005A06F0915B06309759F00480F581E02D77
:10201000309731F086E08093B60286EB92E0099526
:10202000E2E00C94C42F0E9493068093AE0248E035
:1020300050E06CE576E08EEA92E00E941F30892B3A
:1020400079F388E0EEEAF2E0ACE5B6E001900D92BB
:102050008A95E1F7E0915A06F0915B06309701F31B
:102060000280F381E02D3097D9F28EEA92E0D7CF4B
:10207000A0E0B0E0EEE3F0E10C94A82F811531F080
:102080009091E706892B8093E70694DFE2E00C94B9
:10209000C42FA0E0B0E0EFE4F0E10C94A82F81158C
:1020A00019F00E94C20686DFE2E00C94C42FCF92A2
:1020B000DF92EF92FF921F93CF93DF9300D000D077
:1020C000CDB7DEB7C0900C06D0900D06E0900E069E
:1020D000F0900F06C9DB6C197D098E099F0911E08C
:1020E000643671058105910568F1D2DBDC01CB0115
:1020F0000296A11DB11D89839A83AB83BC83809115
:10210000320190913301845E994F20913101422F29
:1021100050E0253010F044E050E0BE016F5F7F4F8B
:102120000E942C3083E090E00E94172F182F811519
:1021300049F09ADB60930C0670930D0680930E06AF
:1021400090930F06812F0F900F900F900F90DF91BB
:10215000CF911F91FF90EF90DF90CF9008952F9235
:102160003F924F925F926F927F929F92AF92BF92F7
:10217000CF92DF92EF92FF920F931F93CF93DF9353
:10218000CDB7DEB7B82E6B01942EA52EB90178011C
:10219000A801892D9A2D0E941F303C01F601208054
:1021A00031804280538060DB62197309840995098C
:1021B000643671058105910510F4672829F10B2D0E
:1021C0000B2C000C110B8B2D98E08902F0011124CF
:1021D000E75EFE4F81819281845E994F2081422F7C
:1021E00050E0E216F10408F4A701692D7A2D0E944F
:1021F0002C30C8010E94172F811539F035DBF6010C
:10220000608371838283938381E0DF91CF911F91FB
:102210000F91FF90EF90DF90CF90BF90AF909F9085
:102220007F906F905F904F903F902F900895A0E027
:10223000B0E0EDE1F1E10C94A62FAC0104E010E078
:1022400021E236E060E176E082E089DFE4E00C94B0
:10225000C22FA9E0B0E0EFE2F1E10C94A62F88E0F4
:10226000EEEDF6E0DE01119601900D928A95E1F710
:10227000198609E010E029E236E0AE014F5F5F4FBA
:1022800068E076E084E06BDF2996E4E00C94C22FEE
:102290008F929F92AF92BF92EF92FF921F93CF9334
:1022A000DF9300D000D00F92CDB7DEB77B0180E086
:1022B00090E00E94172F182F811509F460C08091BB
:1022C0001C01482F50E0811511F041E050E0609171
:1022D0001D0170911E01645E794FCE0105960E942A
:1022E0002C308090180690901906A0901A06B09095
:1022F0001B06BADA681979098A099B0964367105DF
:102300008105910530F48DE196E0E7DB9D81891729
:10231000B1F181E090E00E94172F811509F43DC0D2
:1023200080912401482F50E0853010F044E050E0C7
:102330006091250170912601645E794FCE0101966E
:102340000E942C308DE196E0C8DB9D81891325C069
:102350008BDA609318067093190680931A0690938F
:102360001B0689819A81AB81BC818093140690936E
:102370001506A0931606B093170681E00FC0809152
:102380001D0690911E06A0911F06B091200689831C
:102390009A83AB83BC831111E4CF80E04091140693
:1023A000509115066091160670911706F70140834B
:1023B0005183628373830F900F900F900F900F9053
:1023C000DF91CF911F91FF90EF90BF90AF909F90C2
:1023D0008F900895A0E0B0E0E0EFF1E10C94A82F19
:1023E00048E050E067E170E08EED96E00E945230E8
:1023F0001092E606E2E00C94C42FA0E0B0E0E3E027
:10240000F2E10C94A82FEEEDF6E085E08083809158
:10241000560190915701A091580181839283A38323
:102420008FE784838FEF8583D5DFE2E00C94C42FA0
:10243000A0E0B0E0EEE1F2E10C949C2F29DA609389
:10244000A7037093A8038093A9039093AA032091F4
:10245000DE06022F0370011519F0022F069506956E
:1024600030914601323009F40AC180F4311114C0B0
:10247000109200016093AB037093AC038093AD03A3
:102480009093AE0381E08093460103C0333009F49A
:10249000FDC0EEE00C94B82F8091040108131EC01B
:1024A00023704091030150E081E02417150609F4E0
:1024B00080E0809302018091E306909101019817DA
:1024C00039F08093010140E060E080E00E94C6099D
:1024D000011531F0013071F080E02FC081E0E9CFCB
:1024E000809102018115C1F340E060E080E00E942C
:1024F000C609F2CF809100010E94E5093C01C0901D
:10250000DF06E090E006E091E106F0E0E959F84FDF
:10251000E11025C0E4911E2FFE2EEE2EC62CD12CEC
:10252000909133067C1411F008F08BC081E0911576
:1025300009F4A2C09BE1791678F6909100019F5FA3
:10254000909300018111A5CF82E080934601809194
:10255000020181119ECF01119CCF83E094CF2C2DDD
:1025600030E08E2C912CE4911E2F46E0C49E600139
:102570001124AA24AA94B12CC601B5010E94842F6B
:10258000220F331F45E5469FC001479F900D112440
:10259000281B390B822F880F280FC501881999092C
:1025A0004C01E89DC001E99D900D1124F92EE29E99
:1025B000A0011124452F5527D501A41BB50BAD0152
:1025C000E49FD001E59FB00D1124A501421B5109E4
:1025D0009A01E29EA001E39E500D1124452F55273C
:1025E0009501241B350BA901E49F9001E59F300D57
:1025F0001124E32E63307105D1F04CEFC41643E093
:10260000D40658F461307105B1F06230710509F0FB
:1026100085CF192FF32EEE2E81CF6430710571F026
:102620006630710509F47ACFE92EFB2E77CFEB2EB9
:10263000192FFE2E73CFEE2E1B2F70CF132FE92EE6
:10264000F8CFF601EB50FE4F8081209101018223EB
:10265000811571F0F601911105C05BE1C516D10439
:102660000CF07B972F2D4E2D612FCF010E947D0AFC
:102670008FEFC81AD80A54CFA6E37A165DCF00931D
:10268000040123702093030194DB67CF8091E60659
:102690008111A0DEC090AB03D090AC03E090AD03FD
:1026A000F090AE0380913206811571F0DDD86C197F
:1026B0007D098E099F09603171058105910508F436
:1026C000E8CE10924601E5CEE3D8F1CFA0E0B0E02D
:1026D000ECE6F3E10C94A82FAB0124E630E0BC015A
:1026E00088E70E94242D9C0181E0232B09F080E0E3
:1026F000E2E00C94C42FA0E0B0E0E1E8F3E10C9438
:10270000A82F80910206811561F08091FF05811547
:1027100041F062E070E08AEB90E0D8DF8111109226
:10272000FF05E2E00C94C42FA0E0B0E0EAE9F3E199
:102730000C94A82F809102068115E9F095D8DC0150
:10274000CB01805A9541AF4FBF4F8093FB059093CB
:10275000FC05A093FD05B093FE058091FF05811156
:102760000AC062E070E088EB90E0B0DF811519F0FC
:1027700081E08093FF05E2E00C94C42FA0E0B0E07C
:10278000E4ECF3E10C94A62F682F81E06A3019F095
:102790006D3029F480E075D0E4E00C94C22F809174
:1027A000CD039091CE0326E0FC01A3EEB2E00190B0
:1027B0000D922A95E1F7603E08F458C026E0FC012E
:1027C00011922A95E9F70091CD031091CE0346E0CE
:1027D00050E0B80183EE92E00E941F309801275F1D
:1027E0003340892B41F1C90145E0969587954A957B
:1027F000E1F741E050E0BA0102C0660F771F8A9509
:10280000E2F7CB016091F9057091FA05862B972BC1
:10281000B9016B5F7F4FE5E076956795EA95E1F743
:1028200002C0440F551F6A95E2F7842B952B9093B5
:10283000FA058093F9052A5F3F4F4091CF03642F3B
:1028400070E0C9010E94842F481B463010F4240F09
:10285000311D211572E0370710F020E030E02950DB
:102860003C4F3093CE032093CD0396CFF6E06F9F7D
:10287000B001112464547F4F46E050E00E941630AE
:10288000A2CFA0E0B0E0E7E4F4E10C94A72F382F4A
:10289000E091CD03F091CE03E75FF3402091CF03A9
:1028A000622F70E0CF010E94842F281B822F3115E8
:1028B00061F066E00E94CF2F182F115018F4E3E06A
:1028C0000C94C32F80E25ADFF8CF8E0F9F2F911DFB
:1028D000811522E0920710F080E090E089509C4F33
:1028E0009093CE038093CD03EACFA0E0B0E0EBE776
:1028F000F4E10C94A62F8C01F8018491811103C09E
:10290000E4E00C94C22F3ADF0F5F1F4FF5CFA0E039
:10291000B0E0EDE8F4E10C94A82FE7DF81E0B1DF4F
:10292000E2E00C94C42F1F921FB61F9211248F93C4
:102930009F93AF93BF93CF93DF93CDB7DEB78091D3
:10294000B903811113C08091FC029091FD02A09106
:10295000FE02B091FF024196A11DB11D8093FC02C1
:102960009093FD02A093FE02B093FF02DF91CF91FE
:10297000BF91AF919F918F911F901FBE1F9018958F
:10298000A0E0B0E0E6ECF4E10C94A82F2FB7F894A7
:102990008091FC029091FD02A091FE02B091FF0295
:1029A0002FBFE2E00C94C42FA0E0B0E0EAEDF4E128
:1029B0000C94A62F8C01E4DF801B910BE4E00C94B7
:1029C000C22FA0E0B0E0E7EEF4E10C94A82FD8DF2E
:1029D0002091D4063091D506232B211521F0809328
:1029E0000506909306062091D6063091D706232B34
:1029F000211521F08093030690930406E0915A0676
:102A0000F0915B06309759F00680F781E02D309702
:102A100031F082E08093D20682ED96E00995E2E003
:102A20000C94C42FA0E0B0E0E8E1F5E10C94A82FED
:102A3000611509F44CC0E3E3E80FE33150F4F0E032
:102A4000EF57FF4C0C9410300E94FB0A8195809345
:102A5000D506B7DFE2E00C94C42F0E94FB0AF7CF43
:102A60000E94FB0A81958093D406F3CF0E94FB0A53
:102A7000FACF0E94230B8093D606EBCF0E94230B44
:102A80008195F9CF0E94230B81958093D706E1CFE2
:102A90000E94230BFACF815D990B21E030E001C049
:102AA000220F8A95EAF78091D306822B8093D30672
:102AB000D0CF8091D10681608093D106CACF80911A
:102AC000D1068260F9CF8091D1068460F5CF409124
:102AD000D4068D3C59F48091D50687FF0DC0109225
:102AE000D506411559F41092D00608C08E3C81F4E9
:102AF0008091D50618169CF3411581F08091D60679
:102B00009091D706892B8111A4CF1092CF06A1CF27
:102B10008F3C41F447FFF0CF1092D4068091D50648
:102B20008115E0CF803D19F41416B4F3E5CF9091F0
:102B3000D606893D29F41916FCF61092D606DCCF8C
:102B40008A3D19F497FFD8CFF8CF9091D7068B3DE7
:102B500029F497FFD1CF1092D706CECF8C3D19F430
:102B60001916CCF3C9CF9FE2980F983090F4815D8D
:102B7000990B21E030E0B90102C0660F771F8A95FA
:102B8000E2F7CB0180959091D30689238093D306F9
:102B9000B3CF8D3D31F48091D1068E7F8093D106E5
:102BA000ABCF8E3D21F48091D1068D7FF7CF8F3D45
:102BB00009F0A2CF8091D1068B7FF0CFA0E0B0E0EA
:102BC000E4EEF5E10C94A72F182F8115C9F08CEFD6
:102BD000810F813A98F580914301813021F48091F1
:102BE000EB0687FD10C0E0EBF2E08191181709F1C8
:102BF00022E0E63BF207C9F7812F0E94BA0BDAD92F
:102C0000E3E00C94C32FE12FE695E695E695F0E01E
:102C1000EA54FD4F828190E0412F477021E030E07F
:102C200002C0220F331F4A95E2F782239323892B98
:102C300019F3812F0E94F50BBDD9DECF80E2810F01
:102C4000883068F4177081E090E001C0880F1A9511
:102C5000EAF71091E706182B1093E706D0CF8BE523
:102C6000810F833038F4212F2452330BC9010E9485
:102C70006A0BC6CFE8E5E10FEB3150F4F0E0EE0F60
:102C8000FF1FEB58FD4F808191810E94920BB8CFBE
:102C900083E3810F833108F0B3CF61E0812FC2DE7F
:102CA000AFCFA0E0B0E0E7E5F6E10C94A82F8115E6
:102CB00039F09CEF980F913A30F40E94F50B7AD9D5
:102CC000E2E00C94C42F90E2980F983050F4877093
:102CD00091E001C0990F8A95EAF7892F0E94C206F8
:102CE000EECF9BE5980F933028F480E090E00E94AF
:102CF0006A0BE6CF98E5980F9B3128F480E090E0CE
:102D00000E94920BDDCF93E3980F9331C8F660E0F9
:102D100089DED6CFA0E0B0E0E0E9F6E10C94A82F80
:102D20001092E70680914301813039F58091EB06DE
:102D300087FF23C0E8EBF2E08EE1DF011D928A9568
:102D4000E9F780E090E00E946A0B80E090E00E944A
:102D5000920B1092ED062ED986E0E2EDF6E0DF014F
:102D60001D928A95E9F71092D0061092CF06109224
:102D7000D10627DEE2E00C94C42FE0EBF2E086E01F
:102D8000DCCFA0E0B0E0E7ECF6E10C94A82FC2DFC6
:102D90002FEF84E39CE0215080409040E1F700C099
:102DA000000088E19AE00FB6F894A895809360003F
:102DB0000FBE90936000FFCFAAE2B0E0E2EEF6E132
:102DC0000C94A72F8CEE92E0FC0101962091F1006B
:102DD000208322E0843F9207B9F78091ED02893089
:102DE00009F459C0C8F4823009F4B5C0833009F43D
:102DF00084C0813089F18091E80083FFE9C080912F
:102E0000EC029091ED029A3008F0E2C0E92FF0E078
:102E1000EC56FF4C0C9410308A3009F48BC08B3088
:102E200051F78091EC02813231F78091F00290915C
:102E3000F102892B01F78091E800877F8093E800F9
:102E40000E94E60C81E09091EE02911101C080E0B9
:102E5000809343015FDFCFCF8091EC02813A59F636
:102E60008091E800877F8093E8008091F002909144
:102E7000F102892B61F060E080E090E070E00E9458
:102E8000850C8091E8008B778093E800B4CF68E0F0
:102E900084EF92E0F3CF8091EC02813209F0ABCF66
:102EA0008091F0029091F102029708F0A4CF8091F6
:102EB000E800877F8093E8008091E80082FF18C0D7
:102EC0009091F3008091F200029731F48091F1002B
:102ED000813011F0863021F48091F100809342011D
:102EE0008091E8008B778093E8000E94E60C83CF06
:102EF0008091BB038111E0CF7ECF8091EC02813ABB
:102F000009F079CF8091F0029091F102892B09F0BC
:102F100072CF8091E800877F8093E8008091E8007D
:102F200080FFFCCF809143018093F1008091E80005
:102F30008E77D9CF8091EC02813209F05CCF8091FD
:102F4000E800877F8093E8000E94E60C8091EF0202
:102F50008093410150CF8091EC02813A09F04BCF30
:102F60008091E800877F8093E8008091E80080FFEF
:102F7000FCCF80914101D8CF803889F0823841F56B
:102F80008091F0028F70873018F58093E90080916E
:102F9000EB0085FB882780F91092E90006C080913C
:102FA000BA03880F9091E902892B9091E800977FEE
:102FB0009093E8008093F1001092F1008091E80076
:102FC0008E7723C0811116C08091EE02813011F1FD
:102FD0008091E80083FF0AC08091E800877F80939A
:102FE000E8008091EB0080628093EB00AA96E3E01A
:102FF0000C94C32F823061F78091EE02811589F025
:103000001092E9008091E800877F8093E8000E9499
:10301000E60CDECF81E0933009F080E08093BA03C4
:10302000EFCF8091F0028F702FEF280F263080F6BF
:103030008093E9002091EB0020FFE2CF933031F440
:103040008091EB0080628093EB00DACF9091EB00EF
:1030500090619093EB0021E030E0A90102C0440FA1
:10306000551F8A95E2F74093EA001092EA0080919A
:10307000EB008860E8CF8111ABCF1091EE021F7793
:103080008091E3008078812B8093E3008091E800B9
:10309000877F8093E8000E94E60C8091E80080FF23
:1030A000FCCF8091E30080688093E30083E01111FE
:1030B00001C082E08093BB038BCF8058823008F040
:1030C00087CF2091EE023091EF022C3D53E035077F
:1030D00099F583E08A838AE289834FB7F894DE0109
:1030E000139620E03EE051E2E32FF0E050935700CA
:1030F000849120FF03C082958F703F5F8F708A306C
:10310000C8F0895C90E08D939D932F5F243161F727
:103110004FBF8091E800877F8093E8006AE270E00B
:10312000CE0101960E94850C8091E8008B778093F8
:10313000E8004ECF805DE6CF832F9927833091053D
:1031400029F160F48130910509F475C0029709F006
:103150003FCF8BE390E0E6EFF6E02CC02091F00249
:103160003091F1028132910509F459C0829709F03A
:103170002FCF2115310509F468C02130310509F040
:1031800027CF86EB90E0ECEFF5E014C0C90199275A
:103190002130A9F182309105D1F1892B09F018CFA6
:1031A000E3E6F7E0E4918E2F90E0E3E6F7E00097A6
:1031B00009F40ECF2091E800277F2093E8002091AA
:1031C000F2023091F3028217930708F49C0140E069
:1031D0002115310509F03EC041113CC08091E80045
:1031E00082FDA2CF8091BB03811509F49DCF85306C
:1031F00009F49ACF8091E80083FFF0CF95CFE1E505
:10320000F7E0E4918E2F90E0E1E5F7E0D0CFE3E442
:10321000F7E0E4918E2F90E0E3E4F7E0C8CF2115CA
:10322000310571F02130310509F0D2CE89E090E00E
:10323000E1E2F7E0BFCF82E190E0E1E3F7E0BACF6F
:1032400089E090E0E8E0F7E0B5CF84E490E0E2EBDD
:10325000F6E0B0CF8091BB03811509F465CF8530CE
:1032600009F462CF8091E80083FD5ECF8091E80091
:1032700082FDB4CF8091E80080FFAACF9091F30047
:103280008091F2002115310519F08830910550F038
:1032900041E0089709F040E08091E8008E77809344
:1032A000E80096CF44914093F100319621503109C6
:1032B0000196E8CF803809F08BCE8091E800877FB7
:1032C0008093E8008091EA028093F10077CE81112B
:1032D0007FCE1091EE02123008F07ACE8091E80095
:1032E000877F8093E8001093EA020E94E60C111594
:1032F000A9F084E08093BB0342E061EC81E00E948E
:103300001C0E42E261EC82E00E941C0E8091BB0325
:10331000843051F482E0809344015ACE8091E300DE
:1033200087FDE7CF81E0E6CF81E0F5CFA0E0B0E018
:10333000ECE9F9E10C94A22F142FD22EC02E8115A6
:1033400099F04093DC061CDB9093E2028093E1024B
:10335000177081E0012E01C0880F0A94EAF70E94DD
:103360003810E8E00C94BE2F9091DC06491334C06D
:10337000E090E102F090E20203DB8E199F098A3AA5
:10338000910550F500E20D0D1D15B1F0812F8770EC
:1033900011E0912F01C0990F8A95EAF7892F0E94B9
:1033A0004910083048F48D2D877001C0110F8A959F
:1033B000EAF7812F0E9438108C2D00DC8C2D71DCF7
:1033C000083078F62D2D277081E001C0880F2A95EE
:1033D000EAF70E944910C5CF177081E0012E01C0A5
:1033E000880F0A94EAF7F5CFA0E0B0E0EAEFF9E140
:1033F0000C94A02F6C01FC018481811509F476C026
:1034000061E0C6010E9428098C01F60185818115C1
:1034100009F482C491819093DB0690819093DA063F
:1034200090E2909345011093D9060093D806980135
:1034300030522115304220F5F6019681903128F066
:10344000F801FF27ED33F10578F11092DC069801C1
:1034500030572332310508F06AC484E090E00E94BE
:103460004D309093EC068093EB06F801E150F04765
:10347000E232F10508F06FC0E256FF4C0C941030B8
:103480009801305421153041B8F298013A95211530
:103490003F41B0F29801205A324520323105A8F25E
:1034A0000D33110530F4F801E658F54FE491E0933F
:1034B0004501F801E851FC47E730F10530F633C427
:1034C00006E221EE41EE6AE17CE730DF8091EA0618
:1034D0008770811559F0F6018581811539F0809149
:1034E000EC0682FF03C082E00E947406EAE00C94BE
:1034F000BC2F07E225EE45EE6BE17CE7E6CF06E266
:1035000021EE40EE68E17CE7E0CF07E225EE44EEF5
:1035100069E17CE7DACF06E221EE42EE6CE17CE77E
:10352000D4CF07E225EE46EE6DE17CE7CECF08E290
:1035300021E045EE6EE17CE7C8CF06312CE71207AB
:1035400009F0EEC08091DD06811509F4BAC085E36B
:103550000E94F50B00C48091EB0681608093EB061E
:103560006091EB067091EC0684E090E00E947B3065
:10357000D1DBACCF8091EC0688608093EC06F0CF75
:103580008091EB068260EACF8091EB068460E6CF03
:103590008091EB068860E2CF8091EC068160EDCFF0
:1035A0008091EC068260E9CF8091EB068061D6CFF6
:1035B0008091EB068062D2CF8091EB068064CECF03
:1035C000A9DB8091EB068068C9CF8091EB068C6007
:1035D000C5CF8091EC068360D0CF8091EB068E7FC3
:1035E000BDCF8091EC06877FC8CF8091EB068D7FA1
:1035F000B5CF8091EB068B7FB1CF8091EB06877FB3
:10360000ADCF8091EC068E7FB8CF8091EC068D7F98
:10361000B4CF8091EB068F7EA1CF8091EB068F7D9A
:103620009DCF8091EB068F7B99CF74DB8091EB0669
:103630008F7794CF8091EB06837F90CF8091EC06BB
:103640008C7F9BCF8091EB06992782FF939590FB0F
:1036500082F990FB83F982CF8091EC06982F9095A8
:1036600090FB80F990FB81F988CF9091EB06892F30
:103670008F7B96FF806472CF4DDB9091EB06892F94
:1036800097FB87F980586ACF61E08EE090E00E9456
:10369000613066CF60E0F9CF9091EB06892F8F7E85
:1036A00094FF80615BCF9091EB06892F8E7F90FF16
:1036B000816054CF9091EC06892F877F93FF8860BB
:1036C0005CCF89E245CF9272F801E052F847EB30C7
:1036D000F10508F06EC0E054FF4C0C9410300E94CD
:1036E000010AF4CE911509F449C00E942F0AEECECA
:1036F000911509F449C00E94BB0DE8CE911509F45B
:1037000049C00E94E00DE2CE911509F449C00E9423
:10371000080EDCCE911509F449C00E945D0AD6CE90
:103720009091E7069272F801E054F847ED30F10508
:1037300008F03FC0E553FF4C0C9410308091DE063A
:103740008370811102C0109246018091DE068C7F49
:1037500081608093DE068091E60681608093E606B4
:10376000B5CE8091DE068370811110924601809162
:10377000DE068C7FEECF911509F4B7CF0E94170AB1
:10378000A5CE911509F4B7CF0E94AA0D9FCE911531
:1037900009F4B7CF0E94CC0D99CE911509F4B7CF9B
:1037A0000E94F40D93CE911509F4B7CF0E94470AF9
:1037B0008DCE9801205E324520323105A8F481116A
:1037C0002AC00F7181E090E0FC0102C0EE0FFF1FE4
:1037D0000A95E2F78F016E2F83E090E00E9461303E
:1037E000C8010E94A00572CE8115A9F00A35FCE738
:1037F0001F0709F474C008F04EC001303CE71307FE
:1038000009F46CC003308CE7180709F461C0011596
:103810001C4709F451C0F60187819085009709F48F
:1038200062C00E94F8078C01F601B580A680A294C0
:103830002FE0A2228091EA068770811501F1EB2C1E
:10384000B114F1F0812F807F803461F080E2800F2D
:103850008830A8F0812F807E803221F4023078F009
:10386000A11469F08091EC0682FF09C082E00E94F9
:1038700074068091EA068770EE24E3948111E12CAE
:10388000E12FE295EF70103C08F0A7C0F0E0E8529D
:10389000FF4C0C9410300B35ECE71E0711F18091B2
:1038A000EC06002482FF0394802D0C351C4709F0A0
:1038B000B2CF0E94BB0FAFCF2DDA2FEF34E38CE0F5
:1038C000215030408040E1F700C000000E946E0CA3
:1038D0006FEF7FEF80E090E00E947B3052DA81E072
:1038E000E8CF80E0E6CF8581E080F180811569F046
:1038F000C7010E94F708182F682FC7010E94EA0528
:10390000B701812F0E94D2068CCFC7010E942706E3
:10391000182FF6CFF12FFF70FF2E103118F0F29410
:1039200090EFF922B114B9F0F11469F080E2800F40
:10393000883010F0011109C08091E7068F2980932B
:10394000E7060E94DA0F802F42C08091ED068F2992
:103950008093ED06F6CF802FA4D9F11409F43DC071
:1039600080E2800F883010F0011104C08F2D0E947A
:10397000C20606C0F0948091ED068F218093ED067B
:103980000E94DA0F2AC0212F2F70F22E107F1032E2
:1039900019F0F29480EFF822011549F0013009F492
:1039A00065C0B11409F471C0A11499F1CCCF809114
:1039B000EC0682FD2AC0B11461F0F11439F0809157
:1039C000E7068F298093E7060E94DA0F80E0F6D899
:1039D00004C080E066D9F110C9CFE11409F4BCC07D
:1039E0008091EA0680FDB8C0F6011582869586951D
:1039F00086950E94BA05C601F7DC8091EA06869595
:103A0000869586950E94D105A7C0B11499F0A110A2
:103A100004C08F2D0E943810E0CF31E0A312DDCF1B
:103A20008091E8069F2D9823F916B9F28F2980938B
:103A3000E806D3CFA110D1CF8F2D0E9449109091CD
:103A4000E8068F2D8923811529F08F2D80958923F4
:103A50008093E8068091E9069F2D9823911509F43B
:103A6000BCCFF094F822F092E906B7CFB11429F058
:103A700086E0A81608F0B1CFCCCF95E0A91608F0E3
:103A8000ACCF8F2D0E944910A8CFA114D1F30933D8
:103A900049F4EFEFF7EE23E0E150F0402040E1F78A
:103AA00000C00000802FFDD898CF812F8695869585
:103AB0008370811561F0813009F08FCFC801937058
:103AC000B11002C080E090E00E94920B86CFC80146
:103AD0009370B11002C080E090E00E946A0B7DCF2D
:103AE0006B2D802F0E94121578CF812F837081114A
:103AF00046C0B1102FC0402F429546954770440FE5
:103B0000440F202F2F7030E0042E02C0220F331FED
:103B10000A94E2F780E090E004FF09C08FE090E0B3
:103B200002C0880F991F4A95E2F7809590951695E7
:103B3000169513701230D1F01330A9F0409165073B
:103B400050916607113069F0822B932B84239523C3
:103B50000E94A0050E944F0B60E0C6010E94280948
:103B6000C5CC242B352B822B932BF2CF822B932B7E
:103B7000209165073091660782279327E9CFB1141A
:103B800091F110FFE7CF402F429546954770440FC3
:103B9000440F202F2F7030E0042E02C0220F331F5D
:103BA0000A94E2F780E090E004FF09C08FE090E023
:103BB00002C0880F991F4A95E2F780959095169557
:103BC000169513701230B9F0133091F040916707D9
:103BD00050916807113051F0822B932B8423952349
:103BE0000E94AD05B7CF823070F6B4CF242B352BB1
:103BF000822B932BF5CF822B932B2091670730914B
:103C0000680782279327ECCF1F70B11439F0812FFA
:103C10000E94BA05802F0E9438109CCF802F0E94EE
:103C20004910812F0E94D10595CF023F79F170F4A0
:103C3000003FC9F0013F91F0B11409F459C0A1143B
:103C400009F453C0802F0E94DE1584CF033F29F171
:103C5000043F91F79091EC0692FD2EC0812F8F7159
:103C6000B11401F317C0B11471F035E0A31608F0D8
:103C700071CF1F7181E090E0012E02C0880F991F63
:103C80000A94E2F7BACF86E0A816F1CF812F8F71A0
:103C9000B110C8CF0E94BA055DCF80E090E0B114AA
:103CA00009F49ECF1F7181E090E0012E02C0880FC1
:103CB000991F0A94E2F794CFB11461F0812F8F71AC
:103CC00092FFE8CF982F990F990F990F93609093D7
:103CD000EA06E0CF81E00E94740692E0A91608F49B
:103CE00039CF82E00E94740635CF812F8F71D2CFF9
:103CF000A11479F0093349F4EFEFF7EE23E0E15036
:103D0000F0402040E1F700C00000802F0E945116D3
:103D100021CF812F8F7186CFF801E851FC47E73022
:103D2000F10508F00ACCEC51FF4C0C941030909146
:103D3000E7060631FCE71F0709F0C5CC9A7A81E057
:103D4000911101C080E08093DD0685E3911101C0EF
:103D500089E20E94BA0B0E94DA0FB8CBA0E0B0E073
:103D6000E4EBFEE10C94A32F8091B406803108F0BF
:103D700052C08091B306811509F44DC0E0916506EB
:103D800089E0D82E809164068E1709F444C00E2F66
:103D900010E0DE9EF0011124EA59F94F848181156B
:103DA00009F43FC091818091AF0698133AC0908189
:103DB0008091AE06981335C08581811132C0E280B2
:103DC000F3808091B0069091B106E81AF90A60E09C
:103DD0008EEA96E00E94280988329243F9F484E63C
:103DE00090E0E816F906E8F48091B4068F708061DF
:103DF0008093B40689E0809FF001819FF00D11242B
:103E0000E459F94F80818F70806180838EEA96E05B
:103E1000EBDA0E946206E7E00C94BF2F8AEA90E09A
:103E2000E0CFF8013196E770ADCFAFE0B0E0EBE165
:103E3000FFE10C949D2F8C0186E0F801DE011A96BB
:103E400001900D928A95E1F7D8011596FC9015978F
:103E50001496BC908091B206811120C0B114D9F0A3
:103E6000F11409F485C1C8010E946309811509F4A0
:103E70007FC189E0F801AEEAB6E001900D928A9523
:103E8000E1F7B1E0BB1206C08091AE069091AF069B
:103E90000E94550963DFFF24F39471C0F801C280CA
:103EA000D380E090B3068091B0069091B1064601B0
:103EB000881A990AE11409F401C1A080718060E0B8
:103EC0008EEA96E00E9428098832924399F584E6AA
:103ED00090E08816990608F0BDC0B114E1F2909107
:103EE000AF06D80111962C9111978091B4068031BC
:103EF00008F065C0291321C02091AE069C912913BA
:103F00001CC04091B5065091B60617962D913C9174
:103F10004217530791F4F1104CC08F708061809369
:103F2000B4068EEA96E060DA8091B406F8018683E2
:103F3000F12C25C08AEA90E0CCCFF1103AC040E0E5
:103F4000672D8A2D0E94B20E40E0672D8A2D0E94B7
:103F5000B20EF82E8111ECCF8A859B850E945509FF
:103F6000292F22952F70903478F49F702230A0F082
:103F70009115B1F0D80116969C91903188F48F2D4F
:103F80002F96EDE00C94B92F2A5F2F70223060F04D
:103F9000C8012ADAFE2CF3CF911511F0811579F3BF
:103FA000805E883060F3F4CF803F48F3815F8330D8
:103FB000F9CF8091B40681608093B406B9CF2913FC
:103FC0001DC02091AE06F8019081291317C04091C1
:103FD000B5065091B606278130854217530771F414
:103FE000F1100CC08683C801FFD989E0F801AEEA60
:103FF000B6E001900D928A95E1F74DCFC8010E947D
:104000006309811509F4B4C0F11409F4B1C08091B9
:10401000B4068032B0F02091AE063091AF063A83FC
:104020002983DC82CB829091B2069D831E828F838E
:104030008091B5069091B60699878887CE01019642
:10404000D3D989E0F801AEEAB6E001900D928A95E5
:10405000E1F720CF8091B406803158F48EEA96E0E3
:10406000C3D989E0EEEAF6E0DF011D928A95E9F70F
:104070005FCFB11409F40FCF2091AF06F801918101
:104080002913BCCF2091AE0690812913B7CF409160
:10409000B5065091B606278130854217530709F0BF
:1040A000ADCFF110ABCF8683C8019ED9EEEAF6E022
:1040B00089E0DF011D928A95E9F7EDCE60E08EEA96
:1040C00096E00E9428098832924309F044C084E6B1
:1040D00090E08816990628F6B11409F4DCCEF114A4
:1040E00009F446C09091AF06F8018181981336C05B
:1040F0009091AE068081981331C02091B506309121
:10410000B606878190852817390741F58091B0065A
:104110009091B106C81AD90AFAEACF16D10408F06C
:1041200064CF8091B40680FD60CF803108F45DCF0C
:10413000D80116968C931697807F803F09F453CF51
:1041400016968C911697982F907F905F8F70892B81
:1041500016968C9348CF8AEA90E0BBCFC8010E94A4
:10416000630981116ECF8091B40681608093B4069B
:10417000C8013AD990CEA2E1B0E0E1ECF0E20C94B3
:10418000A62F0A871B872C873D874E875F87688B02
:10419000798B8A8BCE010A9648DE811128C0209146
:1041A00064063091650689E0FE013A96DE011196BB
:1041B00001900D928A95E1F78E858115C1F0822FCD
:1041C00090E001968770992738171906D9F099E081
:1041D000929FD0011124AA59B94FFE013196019046
:1041E0000D929A95E1F7809364060E94620619E0A9
:1041F0008091650690916406891312C06296E4E08E
:104200000C94C22F0E948A161092640610926506C2
:1042100089E0EEEAF6E0DF011D928A95E9F7E7CF43
:10422000189FC00111248A59994FFFDD811531F380
:104230008091650690E001968770992780936506C6
:10424000D7CFA0E0B0E0E7E2F1E20C94A22F80919A
:104250006207811561F0E09104038DE0D82E809112
:104260006207E81738F01092620710920403E8E042
:104270000C94BE2FCC24C394CE0EC0920403EE2E19
:10428000F12CDE9EF0011124E650F94F8481811556
:10429000E1F087819085892B21F4818592850196B3
:1042A00051F40081118122813381448155816681DD
:1042B0007781808560DFDE9CF001DF9CF00D1124AA
:1042C000E650F94F14821092ED06EC2DC8CFA0E015
:1042D000B0E0EDE6F1E20C94982F8091F90697E0BA
:1042E000292E88248394912C9091F806981306C067
:1042F000A8DF0E94900AE2E10C94B42FA82EB12C02
:10430000F501EE0FFF1FE251F94F8081918100E02E
:1043100010E08230910538F4289E8001299E100D0E
:104320001124095B1E4FF8012481211156C03090E1
:104330006207AAEFB6E040E050E0612C431508F0B8
:104340004AC01B96ED90FC901C97F801C080D1806C
:1043500044244A9455245A94712C272D30E0F601B8
:10436000E70DF11DE70DF11D65917591E616F70654
:1043700009F09201672B19F073942901EECF2F3FBA
:10438000320791F1B40102C0660F771F2A95E2F758
:10439000662A9401072C02C0220F331F0A94E2F709
:1043A0002150310962161306E1F4F80122813381AC
:1043B0006DE0649FF001659FF00D1124E650F94F08
:1043C0003087278374E074831082118292878187FB
:1043D00021E0F80125830E94AD0AC5010196837092
:1043E00083CF14961C9214974F5F5F4F1D96A6CFF4
:1043F000A0E0B0E0EEEFF1E20C94A82F1092640779
:1044000010926307109255018091F8068093F90687
:104410000E94900A16DFE2E00C94C42FAEE1B0E0F7
:10442000E4E1F2E20C94982F4B8B5C8B6D8B7E8BCE
:104430008F8BB92E988FA92E91111092ED06188AA4
:10444000198A1A8A86E0FE017396DE011A96019097
:104450000D928A95E1F75F885114D9F05E86BF8688
:1044600061E0CE010A960E94280961E0CE010A9619
:104470000E94280961E0CE010A960E9428094C0199
:1044800080352CE7920791F4A11411F181E080931B
:1044900055015E86BF860A851B852C853D85452D89
:1044A0005B2D688979898A8966DECBC081353CE7D6
:1044B000930721F4A11461F09BDFEBCF82359C4779
:1044C00039F4A11429F0809155018111F5CFDECF87
:1044D000E7E4EE2EE1E0FE2E412C612C712CD70199
:1044E0002D913C916FEF9FEF80E0C82ED12CF90108
:1044F000E80FF11DE80FF11D4591559184169506C1
:1045000011F0C62ED92E452B21F08F5F6C2D9D2DDD
:10451000ECCF10E0BFEFCB16DB0609F44EC0F7017D
:10452000448110915501411110E0D70115963C903E
:10453000159716969C911697A11409F40BC11115A5
:1045400009F408C1311017C021E030E00C2C01C083
:10455000220F0A94EAF7922B16969C932091F60666
:104560003091F7062931310530F429E130E03093FC
:10457000F7062093F606E1E0F0E002C0EE0FFF1F21
:104580008A95E2F7CF010197D70116962C9128174B
:10459000190699F4C0906307D0906407C114D10440
:1045A00009F453C00E94C0148C199D094A9708F45D
:1045B0004CC081E0F701848311E0412AC3010196D8
:1045C000B7E0EB0EF11C66246394712C029709F09E
:1045D00086CFA11409F41DC1411409F41AC10E9427
:1045E000C0149093640780936307809162078830BA
:1045F00040F591E0980F9093620799E0FE013A969A
:10460000DE01119601900D929A95E1F75D82BE82CE
:10461000EDE08E9FC00111248650994F29E0FE01E4
:104620003196DC0101900D922A95E1F72FEF3FEFD3
:10463000DC011A963C932E9319971C969C928E92AD
:104640001B976E96E2E10C94B42F4091F90680918D
:10465000F806942FA0E0B0E057E061E0481709F4B5
:104660004FC0242F30E03A8F298FF901EE0FFF1F42
:10467000E251F94F20813181A0E0B0E022303105D4
:1046800038F4529FD001539FB00D1124A95BBE4F47
:104690002D913C9111973E8F2D8FC12C70E0D12C24
:1046A000ED8DFE8DED0DF11DED0DF11D259035907B
:1046B00021143104E1F0F7010190F081E02DFC8F2D
:1046C000EB8F70E007C0E1E02216330609F0E0E06E
:1046D000CE2A7F5FEB8DFC8DE70FF11DE70FF11DFB
:1046E000259135912115310571F7D394D9CFC11496
:1046F00071F17D15C8F4E1E0D7011496EC9314979D
:104700009093F906AE15BF0509F457CF90E0FC0170
:10471000EE0FFF1FE251F94F7182608201968370A4
:1047200099278093F80649CF109751F014966C930F
:104730001497AE15BF0521F3491302C09F5F937014
:10474000298D3A8D2F5F3F4F422F437087CFA0E0D6
:10475000B0E0F6CF292F30E0311024C061E070E0E6
:1047600002C0660F771F8A95E2F7CB010197821787
:10477000930791F010E0E1E0F0E002C0EE0FFF1FC0
:10478000CA94E2F76F01C094D70116968C911697E0
:104790008C2116968C9311CF411569F3C3010E94A9
:1047A000AD0AE8CFA9010C2C02C0559547950A9493
:1047B000E2F7C901019782239323892B39F540FF42
:1047C00025C0D70112968D919C91892BD1F087E05D
:1047D000FE013196DF011D928A95E9F70E94C0140F
:1047E0009C018B839C8384E08D83F701928183817C
:1047F000792F9887898709811A8144E05E816F81CA
:10480000BADCD70115961C92132DB5CF142F117059
:10481000B2CF9091F9068091F806981731F057DDE4
:10482000B1E04B1609F40DCF34CE0BDD10926407C6
:10483000109263070E94900AF3CFA6E0B0E0E3E293
:10484000F4E20C94A62F0E94C0148C0180913806CB
:10485000909139068017910771F019821A820E948F
:10486000C014BC0149815A8180E090E0D7DD1093EB
:104870003906009338062696E4E00C94C22FACE08B
:10488000B0E0E5E4F4E20C94992FFE01319688E063
:10489000DF011D928A95E9F78BE2E82E82E0F82E7F
:1048A0008F019FE2692E92E0792E2F01AA24A39412
:1048B000B12C35E3832E32E0932EF70181917F01F5
:1048C0008F3F09F43EC0F894E82FE295EF70F0E0D6
:1048D00021A18F70A50102C0440F551F8A95E2F7F0
:1048E000CA01922F982B91A392A18095892382A32C
:1048F000789400C0EFE2F2E031E0312C21912F3FBB
:1049000079F0A22FA295AF70A05EB0E08C9190E0FC
:104910002F7002C0959587952A95E2F780FF88C091
:1049200080E0382A330F8E169F0641F7F7018291F7
:104930008F3F11F00E94A50950EA5A95F1F7D8016E
:104940003C920F5F1F4F6E147F0409F0B6CF48E012
:1049500050E0B2018FEA93E00E941F306C01892B76
:1049600041F088E0F201AFEAB3E001900D928A9540
:10497000E1F70091B80310E004541C4FC114D104B6
:1049800009F458C081E08093DF020E94C014909324
:10499000DE028093DD0280913206811509F4A5C004
:1049A0007E01B9E0EB0EF11C84E0F70111928A95CB
:1049B000E9F78091E0028A3008F060C048E451E1F4
:1049C000B701C8010E94820F811509F47CC047E13C
:1049D00051E1B701C8010E94820F811509F473C02B
:1049E00047E550E1B701C8010E94820F811509F423
:1049F0006AC049E251E1B701C8010E94820F8115E6
:104A000009F461C01092E0028091B70390E044E0A5
:104A100050E0B70184549C4F0E941F3021E0209346
:104A2000DC02892B09F041C02C96E1E10C94B52FF2
:104A3000832F77CF8091DF02811509F4ACCFE0900E
:104A4000DD02F090DE020E94C0148E199F090597C6
:104A500008F4A1CF44E050E06FEA73E0C8010E947F
:104A60001F30892B41F084E0EFEAF3E0D801019098
:104A70000D928A95E1F71092DF028DCFC090DA0295
:104A8000D090DB020E94C0148C199D09843F914094
:104A900008F094CF8091DC02811531F284E0D701D7
:104AA0001D928A95E9F71092DC02E091B703F0E0DD
:104AB000E454FC4F89859A85AB85BC8580839183BE
:104AC000A283B383B1CF8091E0028F3F39F40E947B
:104AD000C0149093DB028093DA02DCCF8F5F809367
:104AE000E0028A3008F490CFF2CFE090B703F12CC7
:104AF000F701E454FC4F7F01F80180819181A2818C
:104B0000B38180931D0690931E06A0931F06B09359
:104B100020068DE196E00E946D0D80931C06809129
:104B2000210690912206A0912306B0912406F70158
:104B300080839183A283B383C0902506D0902606FC
:104B4000E0902706F09028068091D6029091D70237
:104B5000A091D802B091D902C816D906EA06FB0680
:104B6000B1F0C092D602D092D702E092D802F09271
:104B7000D9020E94340CC61AD70AE80AF90AC09270
:104B80003406D0923506E0923606F092370688E079
:104B9000E9E2F6E0AEEDB6E001900D928A95E1F71C
:104BA00043CFCDB7DEB72C970FB6F894DEBF0FBE5C
:104BB000CDBF85B7806885BF85B7806885BF84B75E
:104BC000877F84BF0FB6F894A895809160008861B4
:104BD00080936000109260000FBE80E890E00FB6F6
:104BE000F89480936100909361000FBE81E0809300
:104BF00044018BE999E09093AD028093AC020E944E
:104C0000460D0E94540E8091E20084608093E20081
:104C100078948091BB03811599F08091E9001091FF
:104C2000EC008F70179511271795182B1092E9003B
:104C30008091E80083FD0E94DC161F701093E9004C
:104C400082E084BD93E095BD9AEF97BD80936E009E
:104C500010923406109235061092360610923706DE
:104C60008091D80080618093D8002AE12A95F1F7DD
:104C700000C08091D900182F117080FD04C00E94DF
:104C8000460D1092BB031093320610933306109317
:104C900005011111D5D7809105018091050191E0A1
:104CA0008927880F880F8093B80394E0981B90930E
:104CB000B70384E90E94A50986E60E94A50987E951
:104CC0000E94A50986EC0E94A5090FE212E0D80116
:104CD0008D918D018F3F11F00E94A509B2E005333F
:104CE0001B07A9F788E0ECEBF3E0DF01282F1D920A
:104CF0002A95E9F7EFEAF3E0DF011D928A95E9F7DB
:104D000080E090E00E944D30833E9E4F71F163EE53
:104D10007EEF80E090E00E947B3060E082E090E0F7
:104D20000E94613081E090E0909366078093650770
:104D300061E083E090E00E94613060E074E184E033
:104D400090E00E947B300E94FD1140E050E0BA01EB
:104D50008FE090E00E94733040E050E0BA0183E1C0
:104D600090E00E9473300E94EA1182E090E00E947D
:104D700045308093C40384E090E00E944D309093CE
:104D8000EC068093EB067BDDEFEFF6E721E0E150E8
:104D9000F0402040E1F700C0000071DDE0913306F3
:104DA00011E0E127EE0FEE0FF0E0E454FC4F8081BC
:104DB00081FF08C06FEF7FEF80E090E00E947B30C2
:104DC0000E946E0C83E090E00E94453090E00E94CB
:104DD000A0050E94730A1093E60648E050E067E1E0
:104DE00070E08EED96E00E9435301092E6068091DC
:104DF000DE06843010F40E94FD118091320691E0AD
:104E00008927880F8093F70580E88093CF039AD590
:104E10006BE070E08EE798E00E946613811509F45C
:104E20003FC08091F70565E070E081FDA0C089E793
:104E300098E00E946613811599F16DE070E087E6B5
:104E400098E00E946613811559F10E94340CDC0130
:104E5000CB01805A9541AF4FBF4F8093FB05909394
:104E6000FC05A093FD05B093FE05E7EFF3E080E0BD
:104E700092E0DF019C011D9221503040E1F7F09358
:104E8000CE03E093CD038FEF9FEF9093FA058093CD
:104E9000F90581E0809302068093FF051092F805E2
:104EA00080913206811101C0D4D686E091E09093C2
:104EB0005B0680935A06CE0101967AE0872E912CEC
:104EC000A12CB12C89879A878091BB0310E402E161
:104ED000853009F484C0D3DC05EC13E06CEBE62EDE
:104EE00063E0F62ED701F80191918D9123E0ED3C1E
:104EF000F20709F47EC09817B9F330903206D12C2E
:104F0000D701CD907D01F80141908F014C1431F112
:104F10004C24712C55245394852D84218115B9F08E
:104F20003114A9F07982DA820E94C0149C838B83A9
:104F3000F1E0FD8391E0852D8C21811101C090E08D
:104F40009E8349815A816B817C818D8167DA73945C
:104F5000550C26E07212E0CFF801C292D39438E0EB
:104F6000D312CECF0E94480CFF24F39446C084E7AE
:104F700098E05FCF8091BB03843039F10E94181212
:104F80000E947B131092B90388E190E00FB6F89469
:104F9000A895809360000FBE1093600083B7817F57
:104FA000846083BF83B7816083BF7894889583B71B
:104FB0008E7F83BF0FB6F894A895809160008861BA
:104FC00080936000109260000FBE59DCECEBF3E0C0
:104FD00081918111DFC293E0E43CF907C9F7809128
:104FE000BB03853009F4C6CF0E948A160E944F0B7E
:104FF00072CF981382CF21DCF12C8091320681157B
:1050000031F180915501811511F1009163071091E3
:10501000640701151105D9F00E94C014801B910B83
:105020002091F6063091F7062817390780F4909101
:10503000F9068091F806981709F47FC148D91092B3
:10504000F7061092F60610926407109263070E940A
:10505000181280910206811509F491C00091000692
:10506000109101060E94C014801B910BC29708F496
:1050700066C00E94C014909301068093000687EFDB
:1050800093E09093CE038093CD03809132068115F7
:1050900009F49CC182EF98E00E9475148091670723
:1050A000909168070E947905823009F457C108F091
:1050B0004DC1811150C18AEE98E00E948714809101
:1050C000DB06805D0E94BE138FEC98E00E94751491
:1050D0008091DA06805D0E94BE138BEC98E00E94FE
:1050E00075144090D8065090D90680911001909187
:1050F00011014816590609F037C18091D603803254
:1051000009F032C1E0EDF3E08F0181918032E1F3EB
:10511000F80101900020E9F79F0121503109690150
:105120000C151D0508F44CC189EC98E00E9475141B
:10513000809145010E94BE1381E00E94411480913C
:10514000F9059091FA05892B09F045C18091FF0579
:105150008115A9F00E94340C0091FB051091FC050B
:105160002091FD053091FE05601B710B820B930BA6
:105170006F3F7F4F8F4F9F4710F40E947B13F110BA
:105180000E94941386E0E2EDF6E0A985BA850190CD
:105190000D928A95E1F77090D306D090D406F090E6
:1051A000D506C090D606E090D7061092D40610928D
:1051B000D5061092D6061092D7068F2D8D2981150F
:1051C00009F441C000910506109106060E94C01422
:1051D0009C01201B310B9091D006911509F4D5C18B
:1051E0002531310580F19F3F19F09F5F9093D006E4
:1051F000D11459F00E94FB0A91E01D140CF09FEFAE
:10520000899F802D11248093D406F11459F00E94B7
:10521000FB0A91E01F140CF09FEF899F802D112451
:105220008093D5068091D406811569F01091D5063A
:10523000111549F00E94E50A8093D406812F0E943F
:10524000E50A8093D5068E2D8C29811509F441C07D
:1052500000910306109104060E94C0149C01201BBB
:10526000310B9091CF06911509F48AC12135310592
:1052700080F19F3F19F09F5F9093CF06C11459F0C2
:105280000E94230B91E01C140CF09FEF899F802D4E
:1052900011248093D606E11459F00E94230B91E06B
:1052A0001E140CF09FEF899F802D11248093D70648
:1052B0008091D606811569F01091D706111549F035
:1052C0000E94E50A8093D606812F0E94E50A80930A
:1052D000D7068091D306871119C08091D406811515
:1052E00011F08D1113C02091D506211511F0F21285
:1052F0000DC09091D706911511F0E91207C03091B9
:10530000D606311103C0822B892B81110E94E11432
:1053100086E0E985FA85A2EDB6E001900D928A95C6
:10532000E1F70E944F0B90910706891709F4CCCD45
:10533000809307060E94340CC7CD0E942121109251
:105340006407109263070E94900A81CE833049F06F
:1053500081ED98E0B2CE84EE98E0AFCE8EED98E08D
:10536000ACCE87ED98E0A9CE509211014092100189
:1053700080E28093D603612C712C1092D50355EDF9
:10538000C52E53E0D52E00E010E0C301B201A50107
:10539000940124D6605D603341F40115110529F0B4
:1053A00045284628472809F460E2D6016E936D012E
:1053B00029013A010F5F1F4F0530110531F7A2CEC9
:1053C000D8018D918D010E94BE13AACE89E898E084
:1053D0000E947514B4CE80910206811509F4B6CEF0
:1053E0008091F8058111B2CE0E9494132091F905A5
:1053F0003091FA052115310509F4A8CE10E0812F6E
:1054000090E044244394512C012E02C0440C551CBE
:105410000A94E2F7A20142235323452B11F41F5FA4
:10542000EECF2091F70520FF98C0912F990F990F8B
:10543000990F37E0390F80E023E0909314018093B7
:105440001701309315012093180124E630E047E05E
:1054500050E062E171E088E7AFD2892B09F076CEA7
:10546000B0E21B9FA00111248091F70580FF81C04D
:10547000E7EDF3E080E2DF011D928A95E9F7E9E3C9
:10548000F2E0FC87EB8765E372E087E0D82EEB85DE
:10549000FC85A191FC87EB87FB018191BF01840F03
:1054A000952F911D9C0129503C4F38872F83EA2F5F
:1054B000F0E0E952FC4F80E090E07D2C781AEE2479
:1054C000E394082E01C0EE0C0A94EAF72F8038848A
:1054D00000E0D1011D911D011E21272D201B2770E9
:1054E00030E0B12F022E01C0BB0F0A94EAF73195CC
:1054F000219531092770332701C016952A95EAF7BF
:105500001B2B2081212B20830F5F083011F7019680
:1055100031968830910589F6EDE3F2E02B853C85E4
:10552000E217F30709F0B3CF04E610E020E230E021
:1055300047ED53E060E488E7D1D2892B09F006CE2D
:10554000409450948091F9059091FA058421952119
:105550009093FA058093F905F9CD969587959695E0
:105560008795282F912F9295990F90763FE1390FCB
:1055700064CF49505C4F04E610E020E230E0DACF1F
:105580002B30310508F077CEA4CE2B30310508F052
:105590002CCE59CE8091BA03811509F420CDA0E11B
:1055A000A9BD09BD09B400FEFDCF8091D8008F7D53
:1055B0008093D8008091E00082608093E000809129
:1055C000E00081FDFCCF0E948A1609CD78941F92DD
:1055D0001FB61F9211248F939F93AF93BF93CF93C6
:1055E000DF93CDB7DEB78091FC029091FD02A091D0
:1055F000FE02B091FF020196A11DB11D8093FC0235
:105600009093FD02A093FE02B093FF02DF91CF9131
:10561000BF91AF919F918F911F901FBE1F901895C2
:105620001F920F920FB60F9211242F933F934F9317
:105630005F936F937F938F939F93AF93BF93EF93FA
:10564000FF93CF93DF93CDB7DEB78091E10082FF68
:1056500009C08091E20082FF05C08091E1008B7F4C
:105660008093E1008091DA0080FF24C08091D8000F
:1056700080FF20C08091DA008E7F8093DA008091D5
:10568000D90080FFABC080E189BD82E189BD09B44A
:1056900000FEFDCF81E08093BB038091EB0281117E
:1056A00009C00E94460D0E94540E8091E200846061
:1056B0008093E2008091E10080FF1AC08091E200B7
:1056C00080FF16C08091E2008E7F8093E20080917F
:1056D000E20080618093E2008091D8008062809334
:1056E000D80019BC85E08093BB0383E0809344011C
:1056F0008091E10084FF2FC08091E20084FF2BC0E5
:1057000080E189BD82E189BD09B400FEFDCF8091B1
:10571000D8008F7D8093D8008091E1008F7E8093A8
:10572000E1008091E2008F7E8093E2008091E200B0
:1057300081608093E2008091EA02811509F454C0EF
:1057400084E08093BB038091BB03843009F054C094
:1057500082E0809344018091E10083FF2CC080911E
:10576000E20083FF28C08091E100877F8093E10001
:1057700082E08093BB031092EA028091E1008E7F69
:105780008093E1008091E2008E7F8093E20080911F
:10579000E20080618093E20042E060E080E00E94ED
:1057A0001C0E8091F00088608093F00081E080936F
:1057B000440180934301DF91CF91FF91EF91BF911D
:1057C000AF919F918F917F916F915F914F913F9199
:1057D0002F910F900FBE0F901F90189519BC10922B
:1057E000BB031092EB0266CF8091E30087FF02C0FB
:1057F00083E0A7CF81E0A5CF81E0ABCF1F920F92CE
:105800000FB60F921124CF92DF92EF92FF921F9367
:105810002F933F934F935F936F937F938F939F93B8
:10582000AF93BF93EF93FF93CF93DF93CDB7DEB7E3
:1058300089EEE82EF12CF70180811091EC008F7039
:10584000179511271795182B108290EFC92ED12C80
:10585000F6018081877F808378940E94DC16F701AF
:105860001082F6018081886080831F70F7011083A9
:10587000DF91CF91FF91EF91BF91AF919F918F9168
:105880007F916F915F914F913F912F911F91FF9069
:10589000EF90DF90CF900F900FBE0F901F90189554
:1058A000A0E0B0E0E5E5FCE24EC3F82E8B011092DB
:1058B000BC0084EA8093BC000E94C014E82ED92E5C
:1058C0008091BC0087FF28C08091B900887F883014
:1058D00029F08091B900887F803189F5F092BB0072
:1058E00084E88093BC000E94C014F82EE92E8091B9
:1058F000BC0087FF1CC02091B900287F80E090E0A9
:10590000283199F081E090E0203411F480E090E0BB
:1059100091958195910909C08E2D9D2D0E94D414D9
:105920000817190768F68EEF9FEFE7E028C38F2D61
:105930009E2D0E94D41408171907C8F6F4CF8FEFD4
:105940009FEFF3CFA0E0B0E0E7EAFCE201C31092E2
:10595000B9008CE08093B800E2E016C3A0E0B0E0AC
:10596000E3EBFCE2F1C28B018093BB0084E88093FF
:10597000BC000E94C014F82EE92E8091BC0087FF65
:105980000EC02091B900287F81E090E0283211F408
:1059900080E090E0919581959109E6E0F1C20F3F9A
:1059A000100759F38F2D9E2D0E94D4140817190744
:1059B00020F78EEF9FEFF1CFA0E0B0E0E1EEFCE248
:1059C000BAC2582E962E872E5A0189010E94C01401
:1059D0003C010431110500F10F3F100709F1C80126
:1059E00064E170E091D2D62EC72E6D2D7C2D852DD1
:1059F00057DF7C01892BB9F4C92CD82CAC0CBD1C09
:105A0000CA14DB0419F0E114F104B9F084E98093BD
:105A1000BC00C701EFE0ABC2DD24D394C12CE5CFBD
:105A200085E0D82EFBCF0F3F1007F9F2C3010E948B
:105A3000D41408171907C8F6DFCFB801F601819111
:105A40006F018CDF7C01DCCFA0E0B0E0E9E2FDE299
:105A500072C2582E962E872E5A0179010E94C014C8
:105A60003C0184E1E816F10408F1EFEFEE16FE06C2
:105A700001F1C70164E170E047D2162F072F612FB3
:105A8000702F852D0DDF6C01892BA9F4092D182DA0
:105A9000A00EB11E0A151B0519F0C114D104B1F0F6
:105AA00084E98093BC00C601EFE061C211E000E030
:105AB000E6CF15E0FCCFFFEFEF16FF0601F3C301C1
:105AC0000E94D414E816F906D0F6E0CFF8018491CC
:105AD000B70144DF6C010F5F1F4FDCCFA0E0B0E0E7
